:020000040800F2
:10000000D811002091010008231D00087D18000868
:10001000211D00089B060008852300080000000041
:100020000000000000000000000000002523000880
:10003000150A000800000000CD1E00082723000854
:10004000AB010008AB010008AB010008AB010008E0
:10005000AB010008AB010008AB010008AB010008D0
:10006000AB010008AB010008AB010008AB010008C0
:10007000AB010008AB010008AB010008AB010008B0
:10008000AB010008AB010008AB010008AB010008A0
:10009000AB010008AB010008AB010008AB01000890
:1000A000AB010008AB010008AB010008AB01000880
:1000B000AB010008AB010008AB010008AB01000870
:1000C000AB010008AB010008AB010008AB01000860
:1000D000AB010008AB010008AB010008AB01000850
:1000E000AB010008AB010008AB01000800F002F80A
:1000F00000F03FF80AA090E8000C82448344AAF183
:100100000107DA4501D100F034F8AFF2090EBAE880
:100110000F0013F0010F18BFFB1A43F0010318473B
:10012000EC2700000C280000103A24BF78C878C1E2
:10013000FAD8520724BF30C830C144BF04680C60ED
:10014000704700000023002400250026103A28BF35
:1001500078C1FBD8520728BF30C148BF0B60704739
:10016000642900F07180002070471FB51FBD10B5D5
:1001700010BD00F058FA1146FFF7F7FF02F01AF928
:1001800000F076FA03B4FFF7F2FF03BC00F07EFA4A
:100190000948804709480047FEE7FEE7FEE7FEE71B
:1001A000FEE7FEE7FEE7FEE7FEE7FEE70448054957
:1001B000054A064B7047000083230008ED00000845
:1001C000D8050020D8110020D8090020D809002027
:1001D0000FB41CB5074B06AA7B44694600900598EE
:1001E00000F009FA0020694600F018FA1CBC5DF81E
:1001F00014FB00004104000070B5044685690068E6
:10020000C10601D5302600E02026C00707D070BD0A
:10021000D4E9012130469047206A401C20626D1EBF
:10022000F6D570BD70B5044685690078C00707D162
:1002300070BDD4E9012120209047206A401C206233
:100240006D1EF6D570BD00002DE9F0410646002474
:1002500010687529314616A510D0AFF3008000282C
:1002600002DA404213A507E031688A0701D512A5DA
:1002700002E0490704D511A5012401E0AFF3008095
:1002800000210A2206F1240709E0B0FBF2FCB0FBD2
:10029000F2F302FB1C00303078541846491C002849
:1002A000F3D123462A463046BDE8F04100F044B978
:1002B000000000002D0000002B00000020000000C6
:1002C0002DE9F05F894604464FF0000ADFF874B16B
:1002D000FB44C0F820A02046E1688847002874D07D
:1002E000252806D0D4E901219047206A401C2062CD
:1002F000F1E700265F462046E1688847202805464A
:1003000007DB312D05D2781910F8200C08B106430F
:10031000F1E7B00701D526F00406C4F81CA00027B9
:10032000C4F818A02A2D09D0284602F03CF838B3AA
:1003300004EB8708303DC8F8185019E059F8041B41
:10034000204604EB87029161E1688847012F05464A
:1003500018D1E069002820DA26F020061DE0D8F840
:10036000180000EB800005EB40003038C8F818009A
:100370002046E1688847054602F015F80028EED1CE
:10038000012F0AD02E2D08D12046E16888477F1C16
:100390000546022F46F02006C4DBA069002803DAD8
:1003A000404246F00106A061F00701D026F0100699
:1003B0006C2D0BD0682D09D04C2D39D06A2D35D03D
:1003C000742D35D07A2D33D016E038E0E1682F4611
:1003D00020468847B842054609D16C2F26D04FF4F5
:1003E0008060E168064320468847054604E06C2F9C
:1003F0001AD04FF4807006430DB3A5F141001928BF
:1004000002D8203546F400664A4629462046266032
:100410004E46FFF7A5FE80B101280BD0F61D26F051
:10042000070000F1080956E74020E4E78020D8E7FC
:100430000020D6E706F104094DE7284652E7206A76
:10044000BDE8F09F2626000040EA010310B59B0797
:100450000FD1042A0DD310C808C9121F9C42F8D02E
:1004600020BA19BA884201D9012010BD4FF0FF30DF
:1004700010BD1AB1D30703D0521C07E0002010BDF5
:1004800010F8013B11F8014B1B1B07D110F8013B81
:1004900011F8014B1B1B01D1921EF1D1184610BD62
:1004A0004FF000020429C0F0128010F0030C00F09D
:1004B0001B80CCF1040CBCF1020F18BF00F8012B1B
:1004C000A8BF20F8022BA1EB0C0100F00DB85FEAE9
:1004D000C17C24BF00F8012B00F8012B48BF00F8B5
:1004E000012B70474FF0000200B513469446964624
:1004F000203922BFA0E80C50A0E80C50B1F1200137
:10050000BFF4F7AF090728BFA0E80C5048BF0CC0E4
:100510005DF804EB890028BF40F8042B08BF704742
:1005200048BF20F8022B11F0804F18BF00F8012BB4
:1005300070477047704770472DE9F0470D46994660
:100540009246044600F124080168880604D5E06953
:1005500021F01001216000E00120A84201DD471BCD
:1005600000E00027A1697A1902EB0900081AA061CE
:100570002078C00602D42046FFF73EFE002608E0A1
:10058000D4E901211AF806009047206A401C761C25
:1005900020624E45F4DB2078C0060AD52046FFF7DE
:1005A0002BFE06E0D4E9012130209047206A401C50
:1005B0002062381EA7F10107F4DC07E0D4E901212D
:1005C00018F805009047206A401C2062281EA5F1FB
:1005D0000105F3DC2046FFF725FE2078000602D552
:1005E0000220BDE8F0870120FBE7000001694A1CFA
:1005F00002610878704700B58FB0CDE90131002164
:10060000059105497944CDE9031011466846FFF785
:1006100057FE0FB000BD0000E5FFFFFF0A6802F8BB
:10062000010B0A607047754600F02CF8AE460500D5
:100630006946534620F00700854618B020B5FFF7FD
:10064000B5FDBDE820404FF000064FF000074FF029
:1006500000084FF0000B21F00701AC46ACE8C009E0
:10066000ACE8C009ACE8C009ACE8C0098D467047E9
:1006700010B50446AFF300802046BDE81040FFF7F8
:1006800081BD000000487047740500200149182012
:10069000ABBEFEE7260002007047FEE770B5124CC5
:1006A00022780A2A1ED2251D05EB02120368136068
:1006B00000791071916000F0CFFA217805EB0112FA
:1006C000491CD060217001F02DFB002107A20846D3
:1006D00001F0BEFB01F084FBBDE870404FF47A707E
:1006E00000F0A6B970BD0000000000204E65772024
:1006F00043617264204164646564000070B588B031
:100700000C4600F089F8FF2848D0274901EB001576
:10071000A868A04228D3001BA86000F09DFAE860FA
:1007200001F000FB002121A2084601F091FB6426A4
:10073000B4FBF6F0B4FBF6F206FB10431FA16846CB
:10074000FFF746FD6A460221002001F081FBA86800
:10075000B0FBF6F1B0FBF6F206FB11031BA16846F5
:10076000FFF736FD6A460CE001F0DCFA00211BA21F
:10077000084601F06DFB1DA20221002001F068FB7C
:100780001DA20421002001F063FB01F029FB08B049
:100790004FF47A70BDE8704000F04AB901F0C2FA37
:1007A00019A20021EEE7000004000020436F6E73E1
:1007B000756D652053756363657373005061793A95
:1007C0002025642E253032640000000052656D61E2
:1007D000696E3A2025642E2530326400496E7375A7
:1007E0006666696369656E740000000042616C6151
:1007F0006E63652100000000506C656173652072B6
:10080000656368617267650043617264204E6F744E
:1008100020466F756E6400002DE9F0410B4E0024F8
:100820000746351F09E000BF06EB041005223946D4
:10083000FFF70AFE38B1641CE4B228788442F3D38F
:10084000FF20BDE8F0812046FBE700000400002007
:1008500010B588B0FFF7E0FF0446FF281FD001F075
:1008600061FA002115A2084601F0F2FA174800EBE0
:1008700004146420A168B1FBF0F200FB1213B1FB79
:10088000F0F213A16846FFF7A3FC6A46022100209C
:1008900001F0DEFA01F0A4FAA06808B010BD01F082
:1008A00041FA00210EA2084601F0D2FA01F098FAAE
:1008B0004FF47A7000F0BCF80020EEE743617264F8
:1008C0002042616C616E636500000000040000203E
:1008D000416D6F756E743A2025642E2530326400A8
:1008E00043617264204E6F7420466F756E64000021
:1008F0007047000070B588B00C460546FFF78CFFC6
:10090000FF2842D02D4901EB0016B0682044B060AA
:1009100000F0A2F9F06001F005FA002128A20846D3
:1009200001F096FA6425B4FBF5F0B4FBF5F205FB93
:10093000104328A16846FFF74BFC6A4602210020BD
:1009400001F086FAB068B0FBF5F1B0FBF5F205FBFB
:10095000110324A16846FFF73BFC6A4604210020EE
:1009600001F076FA01F03CFA224C012211462046B1
:1009700000F06DF94FF47A7000F05AF8002201216E
:10098000204600F064F908B070BD01F0CBF90021F9
:1009900019A2084601F05CFA1BA20221002001F016
:1009A00057FA01F01DFA4FF4FA6000F041F808B070
:1009B00021462846BDE87040FFF770BE04000020C5
:1009C000526563686172676520537563636573730D
:1009D000000000004164643A2025642E2530326412
:1009E00000000000546F74616C3A2025642E25309D
:1009F00032640000000C014043617264204E6F7449
:100A000020466F756E640000416464206173206E3F
:100A100065773F007047000072B6044C0121204604
:100A200000F00DF9642000F003F8F7E7000C014036
:100A300070B5044600F010F90546601C02D0044869
:100A40000078044400F008F9401BA042FAD370BDBE
:100A5000B80000202DE9F84FDFF8B8910024A9F183
:100A6000040B23460F2709F1040AABF1040EC9E079
:100A70000125A5402A40AA427DD1674ED1F804C085
:100A8000ACEB0608B44532D014DCBCF1030F3AD00D
:100A900009DCBCF1000F2AD0BCF1010F1CD0BCF165
:100AA000020F31D11DE0BCF1110F17D0BCF1120FB4
:100AB0002AD119E0B8F5881F19D006DCB8F5803FB7
:100AC00015D0B8F5801F1FD111E0B8F5001F0ED06A
:100AD000B8F5041F18D10AE0CB6815E0CB681B1DE0
:100AE00012E0CB6808330FE0CB680C330CE08B6866
:100AF0002BB1012B4FF0080303D0456104E0042320
:100B000002E0056100E00023FF2A01D8064601E06B
:100B100000F104064FEA840501D9A5F12005D6F8B5
:100B2000008007FA05FC28EA0C0803FA05F548EAF4
:100B30000508C6F800804D68ED0062D5374DAE69F6
:100B400046F00106AE61AD6924F0030605F001052B
:100B50000095334D06EB050CDCF80850A607360F60
:100B600007FA06F825EA0805DFF8B880404503D102
:100B70004FF0000817E044E0DFF8AC80404502D1B8
:100B80004FF001080FE0DFF8A480404502D14FF09C
:100B9000020808E0DFF89880404502D14FF00308D2
:100BA00001E04FF0040808FA06F848EA0508CCF816
:100BB00008804D68D9F80060ED024D4601D5164316
:100BC00000E096432E604D68DAF80060AD025546AD
:100BD00001D5164300E096432E604D68DBF80060B7
:100BE000AD035D4601D5164300E096432E604D6887
:100BF000DEF80060ED03754601D5164300E096432C
:100C00002E60641C0D682A46E5407FF431AFBDE8D4
:100C1000F88F00000804014000001110001002408D
:100C20000000014000080140000C0140001001409C
:100C3000001401408068084000D001207047C2685D
:100C400021EA02030A4043EA0241016170470AB106
:100C5000016170470904FBE70148806870470000A4
:100C6000B800002070B5040025D094F83D000025A0
:100C700020B984F83C50204600F04EF9242084F836
:100C80003D002068016821F00101016020680168D1
:100C900041F4004101602068016821F400410160D5
:100CA00000F088FA4D4A6168914201D84C4900E051
:100CB0004C49884201D2012070BD4B492368B0FBEA
:100CC000F1F15E6826F03F060E435E606368934272
:100CD00006D94FF4967359434FF47A73B1FBF3F18D
:100CE0002368491C1E6A26F03F0631431962616879
:100CF000914210D84900401EB0FBF1F2521CC2F3E1
:100D00000B02042A01D2042022E0B0FBF1F0401CC7
:100D1000C0F30B001CE0A268F2B301EBC10303EBCC
:100D20000116431EB3FBF6F35B1C43F480431B0523
:100D300049D092B301EBC10202EB0111401EB0FB9E
:100D4000F1F0401CC0F30B0040F4804040F4004040
:100D50002168CA694CF6FF739A431043C861D4E90D
:100D6000071001432068026822F0C00211430160AD
:100D7000D4E9030101432068826848F2FF339A43B3
:100D800011438160D4E9050108432168CA6822F053
:100D9000FF021043C86001E00EE016E02068016821
:100DA00041F0010101602564202084F83D002563A5
:100DB00084F83E50002070BD01EB4106431EB3FB9A
:100DC000F6F35B1CB3E70120C2E701EB4101401ED3
:100DD000B0FBF1F0401CC0F30B00B7E7A0860100A8
:100DE00080841E0000093D0040420F002DE9F84FAD
:100DF0001F4690468A460446DDF82890FFF72CFFF0
:100E0000054694F83D0020287FD11923012240494E
:100E10002046009500F0C4FD002876D194F83C00EF
:100E2000012872D0012084F83C0020680168C907BD
:100E300003D1016841F0010101602068016821F4DB
:100E400000610160212084F83D00102084F83E00FC
:100E500000262664C4F824806785608D20852D488F
:100E6000E0622B464A465146204600F01FFD90B9ED
:100E7000206841698069009036E02A46494620464C
:100E800000F034FE50B1206C042804D120680168C1
:100E900041F4007101600120BDE8F88F606A2168AB
:100EA00000780861606A401C6062618D491E61853E
:100EB000218D491E89B2218522685369DB435B0776
:100EC0000BD451B100781061606A401C6062608D83
:100ED000401E6085208D401E20852A4649462046BA
:100EE00000F032FD0028CED1208D0028C5D154F865
:100EF0003D0B016841F400710160202004F81E09D7
:100F0000E67766770020C7E7FFE70220C4E7000026
:100F1000020010000000FFFF10B586B00021009114
:100F200001910291039100680F4988421AD10F4C38
:100F3000A06940F00800A061A069694600F00800BF
:100F40000490C020009012200190032003900848D4
:100F5000FFF780FDE06940F40010E061E06900F413
:100F60000010049006B010BD005400400010024074
:100F7000000C01400248816802781144816070478A
:100F8000B8000020074810B5016841F01001016069
:100F9000032000F067F80F2000F006F800F024F8B6
:100FA000002010BD0020024070B50D4D04464FF4E6
:100FB0007A712878B1FBF0F00A490968B1FBF0F0CA
:100FC00000F048FC48B9102C07D200222146501EE0
:100FD00000F028F800206C6070BD012070BD00009A
:100FE000B8000020C40000200C4808B5816941F019
:100FF00001018161816901F001010091C16941F044
:101000008051C161C06900F080500090044841687F
:1010100021F0E06141F00071416008BD0010024024
:1010200000000140F0B40E4B1B680C46C3F30223D2
:10103000C3F10705042D00D90425191D072901D284
:10104000002300E0DB1E012606FA05F1491E2140BF
:1010500099409E40761E16403143F0BC01F093B992
:101060000CED00E0064900F0070208684FF6FF03A8
:10107000184040EA0220034A10430860704700000D
:101080000CED00E00000FA052DE9F0470F460500E1
:1010900061D0434E306800F00700B84209D2306892
:1010A00020F0070038433060306800F00700B84295
:1010B00051D128683B4C810712D5400703D56068A1
:1010C00040F4E06060602878000703D5606840F471
:1010D000605060606068A96820F0F00008436060BC
:1010E0002878C00728D06868012810D02168022815
:1010F00010D0890700292EDA616821F0030101432D
:101100006160FFF7A9FD804641F288390DE0216852
:101110008903EFE78901EDE7FFF79EFDA0EB0801EA
:10112000494502D90320BDE8F0876068696800F08E
:101130000C00B0EB810FEFD1306800F00700B8422F
:101140000BD9306820F0070038433060306800F079
:101150000700B84201D00120E5E72878400705D50F
:101160006068E96820F4E060084360602878000760
:1011700006D56068296920F4605040EAC1006060CB
:1011800000F028F86168084AC1F30311515CC840B7
:101190000649086006480068FFF706FF0020C2E71E
:1011A0000020024000100240E2280008C400002095
:1011B000BC0000200448054900684968044AC1F39E
:1011C0000221515CC8407047C4000020001002405A
:1011D000F22800080E4A51680E4801F00C03042B57
:1011E00011D0082B0FD10C48C1F38343C903C05C55
:1011F0000AD55168084AC1F34041921E515C054A24
:101200005043B0FBF1F07047044948437047000079
:101210000010024000127A00D228000800093D00A8
:101220002DE9F84F040070D02078C04DC00749D098
:101230006868C0F38100012807D06868C0F38100A6
:10124000022809D16868C00306D52868800339D50B
:1012500060680028E7D035E06068B0F5803F0BD0CB
:1012600010B1B0F5A02F11D0286820F4803028608C
:10127000286820F4802002E0286840F4803028604C
:10128000606890B1FFF7E8FC06460AE0286840F481
:1012900080202860F0E700BFFFF7DEFC801B642899
:1012A00073D828688003F7D50CE0FFF7D5FC064615
:1012B00005E000BFFFF7D0FC801B6428F0D8286849
:1012C0008003F7D420789A4E80074FF001094FF041
:1012D000000839D5686810F00C0F07D06868C0F3B3
:1012E0008100022809D16868C00306D428688007F5
:1012F00014D52069012808D110E02069B0B1C6F8E2
:101300000090FFF7A9FC074605E00AE1FFF7A4FCFF
:10131000C01B0228C4D828688007F7D528686169EF
:1013200020F0F80040EAC10028600DE0C6F8008017
:10133000FFF792FC074604E0FFF78EFCC01B022873
:1013400023D828688007F7D4207800072CD579485F
:10135000A169D9B1C0F80090FFF77EFC074604E010
:10136000FFF77AFCC01B02280FD8686A8007F7D500
:1013700071484FF4FA510068B0FBF1F0009000BFE3
:101380000098411E0091FAD20EE080E0C0F8008083
:10139000FFF762FC074604E0FFF75EFCC01B022873
:1013A00075D8686A8007F7D42078400760D5E86967
:1013B0000027C00008D4E86940F08050E861E8697F
:1013C000012700F0805000905C480168C90513D4E3
:1013D0000168834641F480710160FFF73DFC82465D
:1013E00006E000BFFFF738FCA0EB0A0064284ED8E7
:1013F000DBF80000C005F5D5E06801280AD008B187
:10140000052813D0286A20F001002862286A20F0FD
:10141000040002E0286A40F001002862E06841F21E
:10142000883B98B1FFF718FC82460BE0286A40F031
:1014300004002862EEE700BFFFF70EFCA0EB0A01F4
:1014400059455AD8286A8007F6D50CE0FFF704FC06
:10145000824605E0FFF700FCA0EB0A0159454CD895
:10146000286A8007F6D41FB1E86920F08050E8614F
:10147000E06988B36968C1F38101022944D0022878
:10148000C6F8608004D0FFF7E7FB044638E034E09C
:10149000FFF7E2FB074604E0FFF7DEFBC01B022874
:1014A0002BD828688001F7D4206AB0F5803F05D199
:1014B0006868A16820F4003008436860D4E9080136
:1014C0000843696821F4741108436860C6F86090A5
:1014D000FFF7C2FB044606E025E000BFFFF7BCFBB8
:1014E000001B022809D828688001F7D51BE000BF3F
:1014F000FFF7B2FB001B022802D90320BDE8F88FDA
:1015000028688001F4D40EE00128F7D06868226AC8
:1015100000F48031914204D1616A00F47010884275
:1015200001D00120EAE70020E8E7000000100240B7
:101530000000424280044242C4000020007000408B
:1015400070B5040009D0606A002540B1256165616D
:10155000A56294F8510040B10CE0012070BD6068B4
:10156000B0F5827FF4D0E561F2E784F85050204670
:1015700000F040F8022084F851002068016821F052
:1015800040010160A088218900F4827001F40441C7
:101590000843A18901F400610843217C01F00201A4
:1015A0000843217D01F001010843218B01F4007102
:1015B0000843217F01F03801084394F8201001F01E
:1015C00080010843218D01F400510843216808601F
:1015D000A069042101EA1040216848602068C169BF
:1015E00021F40061C1616565012084F8510000208B
:1015F00070BD000030B585B00024009401940294C1
:10160000039400681449884223D11448816941F445
:1016100080518161816901F480510491816941F0B7
:101620000401816180690E4D00F004000490A02047
:101630000090022001900320039069462846FFF79E
:1016400009FA4020CDE90004694628460294FFF7D4
:1016500001FA05B030BD000000300140001002402A
:10166000000801402DE9FF4F81B01D469346044616
:101670004FF001090E9EFFF7EFFA074694F851006C
:101680006168012806D0B1F5827F3CD1A168C9BB51
:10169000042838D10298002871D0BBF1000FFBD08C
:1016A000002DF9D094F8500001282CD04FF0010AF9
:1016B00084F850A094F85100042802D0052084F842
:1016C00051004FF00008C4F85480C4F838B0E587E2
:1016D000A58702992163E586A586C4F84080C4F8F1
:1016E000448020680168490603D4016841F0400144
:1016F0000160E068B0F5006F606808D0F0B3012DBC
:1017000049D081E0FFE7022005B0BDE8F08F08B1C5
:10171000012D39D1206B21680088C860206B801CA6
:101720002063E08E401EE0862EE0206881688907F5
:101730000FD5E18E69B1B9F1010F0AD1216B09888A
:10174000C160206B801C2063E08E401EE0864FF05D
:10175000000920688168C9070CD0E18F51B1C068C9
:10176000A16B0880A06B801CA063E08F401EE08707
:101770004FF00109FFF770FAC01B01E00BE067E0D2
:10178000B04201D3701C50D1E08E0028CDD1E08F43
:101790000028CAD13EE0206B216800780873206BD6
:1017A000401C2063E08E401EE0862DE020688168AA
:1017B00089070FD5E18E69B1B9F1010F0AD1216B0B
:1017C00009780173206B401C2063E08E401EE08688
:1017D0004FF0000920688168C9070CD0E18F51B132
:1017E000C068A16B0870A06B401CA063E08F401E16
:1017F000E0874FF00109FFF72FFAC01BB04202D378
:10180000701C01D011E086B1E08E0028CED1E08FAF
:101810000028CBD13A463146204600F00CFD50B1AD
:101820002020606584F8508012E084F851A084F88C
:101830005080032068E7A06818B92068C1688068F4
:10184000009084F851A084F85080606D0028F1D099
:10185000012059E710B5401EB0F1807F01D301206F
:1018600010BD4FF0E02460610F21601700F08BFD88
:101870000020A06107202061002010BDFEE7016864
:101880004A69D24352050FD46FF480624A61002145
:1018900040F8301F202242738173026942F0040233
:1018A000026101730120704700207047F8B50446BB
:1018B000C06A1E460D461746082807D0012805D0E5
:1018C00010F5803F02D0206B122804D120680168F7
:1018D00041F480710160134600224FF0011120464F
:1018E000009600F05DF840B120680068C00502D5A0
:1018F0004FF4007020640320F8BD2069B0F5804FDC
:101900000ED00620216800EAD51040F0F0000861F2
:1019100033463A460B49204600F08AF878B902E08F
:1019200005F0FE0000E0E8B2216808610549334691
:101930003A46891F204600F07BF80028DCD00120C1
:10194000F8BD00000800010070B516460D460446BB
:101950001EE02046FFF793FF08B1012070BD681C10
:1019600016D0FFF779F9801BA84200D885B9206806
:101970004069C04340070BD5002044F8300F2021B8
:101980006173A073216941F0200121612073E4E7B4
:1019900020684069C0434007DBD4002070BD0000D0
:1019A0002DE9F047984617460D460446C1F3074611
:1019B000DDF820902AE000BFB8F1FF3F26D0FFF706
:1019C0004BF9A0EB0901414502D8B8F1000F1DD138
:1019D0002068012E16D0806925EA00000004000C62
:1019E00012D00020B84211D1002044F8300F20213D
:1019F0006173A073216941F02001216120730120EE
:101A0000BDE8F0874069E7E70120EBE72068012E99
:101A10000AD0806925EA00000004000C06D00020EE
:101A2000B842C9D00020EBE74069F3E70120F7E7AF
:101A30002DE9F047984616460D4604464FF000093A
:101A40004FF0200AC1F3074723E020684069C043F4
:101A5000400515D42068016841F4007101602168D7
:101A60006FF480604861C4F8309084F83DA084F839
:101A70003E90216C41F00401216484F83C9021E007
:101A8000701C06D0FFF7E8F8A0EB0800B04203D8BE
:101A900016B1012F1FD021E02068012F15D08069D9
:101AA00025EA00000004000C18D000BF44F8309F65
:101AB00084F80DA084F80E90216941F02001216185
:101AC00084F80C900120BDE8F087406925EA000009
:101AD0000004000CEAD12068406901E020688069B8
:101AE00025EA00000004000CAFD1ECE770B5164603
:101AF0000D4604461EE02046FFF7C1FE08B1012056
:101B000070BD681C16D0FFF7A7F8801BA84200D84C
:101B100085B920684069C04300060BD5002044F811
:101B2000300F20216173A073216941F020012161F0
:101B30002073E4E720684069C0430006DBD400203E
:101B400070BD70472DE9F047254E264C00253078B2
:101B50004FF480774FF400784FF4806970B13946C4
:101B60002046FFF767F880B141462046FFF762F84C
:101B700058B149462046FFF75DF830B13946204656
:101B8000FFF758F801281BD027E00A20FEF750FF86
:101B90000020307039462046FFF74CF850B14146DE
:101BA0002046FFF747F838B149462046FFF742F88C
:101BB00020B112E0012510E002250EE003250CE023
:101BC00041462046FFF736F8012806D1494620460F
:101BD000FFF730F8012800D130702846BDE8F087C3
:101BE000A4000020000801402DE9F04186B0002447
:101BF00026480094019402940394816941F02001E5
:101C00008161816901F020010491816941F0040141
:101C10008161816901F004010491816941F0080149
:101C200081618069DFF8688000F00800049000227C
:101C300001214046FFF70BF8012210214046FFF733
:101C400006F8144F002201213846FFF700F8112052
:101C500001250226CDE90005CDE902466946404648
:101C6000FEF7F8FE03960095CDE901546946384623
:101C7000FEF7F0FE4FF4E0608DE831006946404623
:101C8000FEF7E8FE06B0BDE8F0810000001002405B
:101C900000080140000C01400D4810B50B490160DF
:101CA0000C49416000214FF480428160C0E9031279
:101CB00041618161C1610162FEF7D4FF002803D058
:101CC000BDE81040FEF7A8BE10BD00000054004063
:101CD000C8040020A0860100104810B50E4901601C
:101CE0004FF48271416000218160C1604FF4007245
:101CF0000161C0E905123822C0E907214162816211
:101D00000A21C162FFF71CFC002803D0BDE8104087
:101D1000FEF782BE10BD0000003001401C0500200F
:101D2000FEE7FEE74FF480610148FEF7B9BB000013
:101D3000C800002010B56420FEF77AFEAE2000F047
:101D4000B5F8D52000F0B2F8802000F0AFF8A82058
:101D500000F0ACF83F2000F0A9F8D32000F0A6F87E
:101D6000002000F0A3F8402000F0A0F88D2000F043
:101D70009DF8142000F09AF8202000F097F8002039
:101D800000F094F8A12000F091F8C82000F08EF83F
:101D9000DA2000F08BF8122000F088F8812000F0A3
:101DA00085F8CF2000F082F8D92000F07FF8F120EC
:101DB00000F07CF8DB2000F079F8402000F076F8A5
:101DC000A42000F073F8A62000F070F8AF2000F017
:101DD0006DF8FFF7A7FFBDE8104000F001B8000064
:101DE0002DE9FC410024DFF85C806427222000F00C
:101DF0005DF8204600F05AF8204600F057F8212000
:101E000000F054F8002000F051F87F2000F04EF868
:101E1000002508EBC4160CA1705D096801918DF8CE
:101E20000500022301AA782108480097FEF7DEFF8B
:101E30006D1CEDB2802DEED3641CE4B2082CD5D31A
:101E4000BDE8FC81C800002040000000C80400205C
:101E5000F0B5002422E000BF00EBC403DDB27F2D0B
:101E60001AD8072918D8A6F120035E2B14D80D4FD5
:101E7000002307EBC6060C4F07EBC11706EB030C5C
:101E800005EB030EACF5805C5B1C9CF800CFDBB26D
:101E900007F80EC0082BF1D3641CE4B2165D002EC7
:101EA000DAD1F0BDD8250008C80000201CB50021FB
:101EB00001918DF8050064200090022301AA782189
:101EC0000148FEF793FF1CBDC804002070477CB595
:101ED0000446002529460D2000F09CF9932020702F
:101EE0002020607001A823460090022219460C2091
:101EF00000F0F9F8010009D1225C401C5540C0B245
:101F00000428F9D3205CA84200D0022108467CBDF9
:101F100070B50C46054600F07DF820EA040128461D
:101F2000BDE8704000F076B90EB550208DF8040081
:101F300000208DF8050002A801AB0090022219468E
:101F40000C2000F0D0F80EBD10B53220FEF770FD69
:101F50002F4C002201212046FEF779FE0A20FEF7D1
:101F600067FD012211462046FEF771FE3220FEF782
:101F70005FFD00F047F90520FEF75AFD0F21012013
:101F800000F048F9052000E00120FEF751FD012096
:101F900000F040F8C006F7D48D212A2000F03AF96D
:101FA0003E212B2000F036F91E212D2000F032F9C1
:101FB00000212C2000F02EF90021122000F02AF937
:101FC0000021132000F026F92621242000F022F918
:101FD0004021152000F01EF93D21112000F01AF9D2
:101FE0000321142000F073F84F21262000F012F98D
:101FF0008521182000F00EF94D21192000F00AF972
:102000000A20FEF715FDBDE81040372000F002B8A9
:102010000008014010B5044600F036F87E2000EAC2
:10202000440040F0800000F01FF8002000F01CF891
:10203000044600F0E7F8204610BD7CB50C46054686
:1020400007210D2000F0E6F8257001A82346009036
:10205000012219460C2000F046F818B9BDF804100A
:10206000102900D002207CBD01B582B06420009010
:10207000012301AA02A90348FFF7F4FA9DF804001E
:102080000EBD00001C050020002210210148FEF7B3
:10209000DEBD00000008014010B586B093218DF828
:1020A000041070218DF80510002101AA435C54181A
:1020B000491CC9B2A3700529F8D304A8134600909F
:1020C000072219460C2000F00EF806B010BD70B5BE
:1020D0000C460546FFF79EFF40EA04012846BDE88E
:1020E000704000F097B82DE9FF5F00270226DDF869
:1020F00038A015468B468146B8460C2805D0B9F164
:102100000E0F05D11227102001E0772730208046DE
:1021100047F08001022000F07DF880210420FFF7C5
:10212000F7FE80210A20FFF7D2FF0021012000F0F6
:1021300071F8002406E01BF80410092000F06AF88A
:10214000641CA4B2AC42F6D34946012000F062F808
:10215000B9F10C0F03D180210D20FFF7B8FF4FF428
:10216000FA650420FFF756FF6D1E2D0404462D0C62
:1021700004D0E00702D114EA080FF2D080210D202C
:10218000FFF7C6FE35B10620FFF744FF10F01B0F26
:1021900008D002260021012000F03CF804B03046AF
:1021A000BDE8F09F00263C40E00700D00126B9F1D1
:1021B0000C0FEFD10A20FFF72DFF04460C20FFF78C
:1021C00029FF10F007004FEAC40104D00839084481
:1021D000AAF8000001E0AAF8001024B1102C04D9DC
:1021E0001024002503E00124FBE7002506E0092078
:1021F000FFF710FF039948556D1CADB2A542F6D309
:10220000C8E70000012210210148FEF720BD0000B0
:102210000008014070B50D460446FFF735FF7E20EB
:1022200000EA4400FFF720FF2846FFF71DFFBDE846
:102230007040FFF7E7BFF8B515460E460B46009213
:1022400004460122022100F011F840B93346002271
:1022500080212046009500F009F8002804D0606D28
:1022600040F0200060650320F8BD00002DE9F84330
:102270001E46914688460446089DFEF7EDFC401B2D
:10228000351AFEF7E9FC074625480068C0F3CB3055
:10229000684338E0701C37D0FEF7DEFCC01BA84254
:1022A00003D215B1009860B32CE02068416821F09A
:1022B000E00141606068B0F5827F0BD1A068B0F5A5
:1022C000004F02D0B0F5806F04D12068016821F082
:1022D00040010160A06AB0F5005F09D12068016883
:1022E00021F4005101602068016841F4005101604F
:1022F000012084F85100002084F850000320BDE83C
:10230000F8830025401E00902068816838EA0100AB
:1023100004D000214945BDD10020F0E70121F9E7B3
:10232000C40000207047FEF725BE30B58FB02821CD
:102330006846FEF7D7F814210AA8FEF7D3F8012162
:102340000804CDE900100024029402250491CDE98F
:1023500007504FF4E01009906846FEF761FF60B93E
:102360000F20CDE90A056802CDE90C4002210AA838
:102370000E94FEF789FE002801D0FEF74DFB0FB04A
:1023800030BD7047FEE70907090E002804DB00F1A5
:10239000E02080F80014704700F00F0000F1E0200A
:1023A00080F8141D704730380A2801D20120704788
:1023B0000020704708B5FEF7E5FDFFF7B6FFFFF711
:1023C00013FCFFF769FCFFF787FCFFF7B3FCFFF78F
:1023D000BBFDFFF7B6FBFEF78BFA614D0022012132
:1023E0002846FEF734FC5F4C012210212046FEF700
:1023F0002EFC012211462046FEF729FCFFF792FC35
:10240000002159A20846FFF723FD5BA2022100200C
:10241000FFF71EFD5BA204210020FFF719FDFFF767
:10242000DFFC002201212846FEF711FCC820FEF740
:10243000FFFA012211462846FEF709FC544C4FF4DE
:102440007A770026002201212846FEF700FC20783A
:1024500000285BD0FEF700FC6168401A40F6B831F6
:10246000884226D92670FFF75FFDFFF75BFC00214D
:1024700048A20846FFF7ECFC48A202210020FFF723
:10248000E7FCFFF7ADFC3846FEF7D2FAFFF74AFC4F
:10249000002135A20846FFF7DBFC37A2022100200D
:1024A000FFF7D6FC37A204210020FFF7D1FCFFF78D
:1024B00097FCFFF747FB00284ED0012804D00228E4
:1024C00007D0032811D10AE031480830FEF7C0F9DF
:1024D0000BE02F4839460830FEF70CFA05E02C488F
:1024E0004FF4FA710830FEF709F9FFF71DFD267069
:1024F0004FF4FA60FEF79CFAFFF714FC00211EA2CD
:102500000846FFF7A5FC1FA2022120E0694626200D
:10251000FFF793FD00BB1E480830FFF7D8FCD8B981
:102520001B480830FFF7B8FD01202070FEF794FB30
:102530006060FFF7F7FB00211DA20846FFF788FC4B
:102540001FA202210020FFF783FC21A2042100200A
:10255000FFF77EFCFFF744FC6420FEF769FA71E7A1
:10256000000C01400008014043616E7465656E20F7
:1025700053797374656D0000506C6163652043612D
:102580007264000052656164792E2E2E00000000F6
:10259000A800002054696D656F757400506C61630C
:1025A00065204361726420416761696E000000002C
:1025B000517569636B20416374696F6E210000007F
:1025C0005072657373204B6579204E4F57000000A1
:1025D0003120322033000000000000000000000025
:1025E00000005F000000000000000700070000007E
:1025F00000147F147F14000000242A7F2A12000098
:102600000023130864620000003649552250000080
:102610000000050300000000001C22410000000033
:102620000041221C0000000000082A1C2A080000AB
:102630000008083E080800000000503000000000BC
:1026400000080808080800000000606000000000A2
:102650000020100804020000003E5149453E0000E1
:102660000000427F400000000042615149460000E6
:10267000002141454B310000001814127F1000006A
:102680000027454545390000003C4A4949300000D3
:102690000001710905030000003649494936000070
:1026A00000064949291E00000000363600000000DF
:1026B000000056360000000000081422410000000F
:1026C0000014141414140000004122140800000027
:1026D000000201510906000000324979413E000024
:1026E000007E1111117E0000007F4949493600002B
:1026F000003E414141220000007F4141221C000078
:10270000007F494949410000007F09090901000093
:10271000003E4149497A0000007F0808087F000018
:102720000000417F41000000002040413F010000C7
:10273000007F081422410000007F4040404000001C
:10274000007F020C027F0000007F0408107F000061
:10275000003E4141413E0000007F0909090600009A
:10276000003E4151215E0000007F0919294600000A
:1027700000464949493100000001017F0101000084
:10278000003F4040403F0000001F2040201F00004D
:10279000003F4038403F000000631408146300000D
:1027A0000007087008070000006151494543000018
:1027B00000007F41410000000002040810200000DA
:1027C000000041417F0000000004020102040000FB
:1027D00000404040404000000000010204000000B2
:1027E0000020545454780000007F484444380000CE
:1027F000003844444420000000384444487F00002E
:10280000003854545418000000087E0901020000EA
:10281000000C5252523E0000007F08040478000071
:102820000000447D40000000002040443D000000C6
:10283000007F1028440000000000417F400000009D
:10284000007C041804780000007C08040478000070
:102850000038444444380000007C1414140800007C
:1028600000081414187C0000007C08040408000010
:10287000004854545420000000043F44402000000D
:10288000003C4040207C0000001C2040201C000038
:10289000003C4030403C0000004428102844000028
:1028A000000C5050503C0000004464544C44000064
:1028B0000000000000000000000000000000000018
:1028C0000000000000000000000000000000000008
:1028D000010202030405060708090A0B0C0D0E0F7E
:1028E00010100000000000000000010203040607B1
:1028F00008090000000001020304040000080000B1
:102900000000000000020001000010002C29000857
:1029100000000020C800000028010008F429000879
:10292000C80000201011000044010008030000004E
:102930001234567890000000881300000000000058
:10294000ABCDEF1234000000B80B00000000000017
:102950001122334455000000102700000000000041
:102960000000000000000000000000000000000067
:102970000000000000000000000000000000000057
:102980000000000000000000000000000000000047
:102990000000000000000000000000000000000037
:1029A0000000000000000000000000000000000027
:1029B0000000000000000000000000000000000017
:1029C0000000000000000000000000000000000007
:1029D00001000000000000000000000000000000F6
:1029E00000000000010000001000000000000000D6
:0429F00000127A0057
:04000005080000ED02
:00000001FF
